{
  "contractName": "ISPcontract",
  "abi": [
    {
      "anonymous": false,
      "inputs": [],
      "name": "NewPost",
      "type": "event"
    },
    {
      "constant": false,
      "inputs": [
        {
          "internalType": "string",
          "name": "_img",
          "type": "string"
        },
        {
          "internalType": "string",
          "name": "_text",
          "type": "string"
        },
        {
          "internalType": "string",
          "name": "_title",
          "type": "string"
        }
      ],
      "name": "sendHash",
      "outputs": [],
      "payable": false,
      "stateMutability": "nonpayable",
      "type": "function"
    },
    {
      "constant": true,
      "inputs": [
        {
          "internalType": "uint256",
          "name": "_index",
          "type": "uint256"
        }
      ],
      "name": "getHash",
      "outputs": [
        {
          "internalType": "string",
          "name": "img",
          "type": "string"
        },
        {
          "internalType": "string",
          "name": "text",
          "type": "string"
        },
        {
          "internalType": "string",
          "name": "title",
          "type": "string"
        },
        {
          "internalType": "address",
          "name": "owner",
          "type": "address"
        }
      ],
      "payable": false,
      "stateMutability": "view",
      "type": "function"
    },
    {
      "constant": true,
      "inputs": [],
      "name": "getCounter",
      "outputs": [
        {
          "internalType": "uint256",
          "name": "",
          "type": "uint256"
        }
      ],
      "payable": false,
      "stateMutability": "view",
      "type": "function"
    }
  ],
  "bytecode": "0x608060405234801561001057600080fd5b5061081c806100206000396000f3fe608060405234801561001057600080fd5b50600436106100415760003560e01c80630beb7186146100465780636b2fafa91461022f5780638ada066e146103e1575b600080fd5b61022d6004803603606081101561005c57600080fd5b810190808035906020019064010000000081111561007957600080fd5b82018360208201111561008b57600080fd5b803590602001918460018302840111640100000000831117156100ad57600080fd5b91908080601f016020809104026020016040519081016040528093929190818152602001838380828437600081840152601f19601f8201169050808301925050505050505091929192908035906020019064010000000081111561011057600080fd5b82018360208201111561012257600080fd5b8035906020019184600183028401116401000000008311171561014457600080fd5b91908080601f016020809104026020016040519081016040528093929190818152602001838380828437600081840152601f19601f820116905080830192505050505050509192919290803590602001906401000000008111156101a757600080fd5b8201836020820111156101b957600080fd5b803590602001918460018302840111640100000000831117156101db57600080fd5b91908080601f016020809104026020016040519081016040528093929190818152602001838380828437600081840152601f19601f8201169050808301925050505050505091929192905050506103ff565b005b61025b6004803603602081101561024557600080fd5b81019080803590602001909291905050506104e2565b604051808060200180602001806020018573ffffffffffffffffffffffffffffffffffffffff1673ffffffffffffffffffffffffffffffffffffffff168152602001848103845288818151815260200191508051906020019080838360005b838110156102d55780820151818401526020810190506102ba565b50505050905090810190601f1680156103025780820380516001836020036101000a031916815260200191505b50848103835287818151815260200191508051906020019080838360005b8381101561033b578082015181840152602081019050610320565b50505050905090810190601f1680156103685780820380516001836020036101000a031916815260200191505b50848103825286818151815260200191508051906020019080838360005b838110156103a1578082015181840152602081019050610386565b50505050905090810190601f1680156103ce5780820380516001836020036101000a031916815260200191505b5097505050505050505060405180910390f35b6103e9610738565b6040518082815260200191505060405180910390f35b6001805401600181905550600080600060015481526020019081526020016000209050338160000160006101000a81548173ffffffffffffffffffffffffffffffffffffffff021916908373ffffffffffffffffffffffffffffffffffffffff1602179055508381600101908051906020019061047d929190610742565b5082816002019080519060200190610496929190610742565b50818160030190805190602001906104af929190610742565b507f2fd62d00186ef15df84fb6fd7cecdbb4bcfd6c0aed7264f1361db1716db84b7f60405160405180910390a150505050565b6060806060600080600086815260200190815260200160002060000160009054906101000a900473ffffffffffffffffffffffffffffffffffffffff1690506000808681526020019081526020016000206001018054600181600116156101000203166002900480601f0160208091040260200160405190810160405280929190818152602001828054600181600116156101000203166002900480156105ca5780601f1061059f576101008083540402835291602001916105ca565b820191906000526020600020905b8154815290600101906020018083116105ad57829003601f168201915b505050505093506000808681526020019081526020016000206002018054600181600116156101000203166002900480601f01602080910402602001604051908101604052809291908181526020018280546001816001161561010002031660029004801561067a5780601f1061064f5761010080835404028352916020019161067a565b820191906000526020600020905b81548152906001019060200180831161065d57829003601f168201915b505050505092506000808681526020019081526020016000206003018054600181600116156101000203166002900480601f01602080910402602001604051908101604052809291908181526020018280546001816001161561010002031660029004801561072a5780601f106106ff5761010080835404028352916020019161072a565b820191906000526020600020905b81548152906001019060200180831161070d57829003601f168201915b505050505091509193509193565b6000600154905090565b828054600181600116156101000203166002900490600052602060002090601f016020900481019282601f1061078357805160ff19168380011785556107b1565b828001600101855582156107b1579182015b828111156107b0578251825591602001919060010190610795565b5b5090506107be91906107c2565b5090565b6107e491905b808211156107e05760008160009055506001016107c8565b5090565b9056fea265627a7a723158205cb6ef8939ad3031e52ab1d8379e983c08bb4a5d03fb75429d4f1e84f4e7707664736f6c63430005100032",
  "source": "pragma solidity >=0.4.22 <0.9.0;\r\n\r\ncontract ISPcontract{    \r\n    // This struct is for the properties of a post.\r\n    struct Post{\r\n        address owner;\r\n        string imgHash;\r\n        string textHash;\r\n        string titleHash;\r\n    }\r\n    \r\n    // A mapping list for posts from Post struct.\r\n    mapping(uint256 => Post) posts;\r\n    \r\n    // A counter for the posts mapping list.\r\n    uint256 postCtr;\r\n    \r\n    // Event which will notify new posts.    \r\n    event NewPost();\r\n    \r\n    /**\r\n     * @dev Function to store image & text hashes.\r\n     * @param _img hash from IPFS.\r\n     * @param _text hash from IPFS.\r\n     */ \r\n    function sendHash(\r\n        string memory _img, \r\n        string memory _text,\r\n        string memory _title\r\n    ) \r\n        public \r\n    {\r\n        postCtr = postCtr + 1;\r\n        Post storage posting = posts[postCtr];\r\n        posting.owner = msg.sender;\r\n        posting.imgHash = _img;\r\n        posting.textHash = _text;\r\n        posting.titleHash = _title;\r\n        \r\n        emit NewPost();\r\n    }\r\n    \r\n    function getHash(uint256 _index) \r\n        public \r\n        view \r\n        returns (\r\n            string memory img, \r\n            string memory text,\r\n            string memory title, \r\n            address owner\r\n        ) \r\n    {\r\n        owner = posts[_index].owner;\r\n        img = posts[_index].imgHash;\r\n        text = posts[_index].textHash;\r\n        title = posts[_index].titleHash;\r\n    }\r\n    \r\n    /**\r\n     * @dev Function to get length of total posts.\r\n     * @return The total count of posts.\r\n     */\r\n    function getCounter() public view returns(uint256) { return postCtr; }\r\n    \r\n}",
  "sourcePath": "C:/Users/Marko/Desktop/Blockchain/frontend/src/contracts/ISPcontract.sol",
  "compiler": {
    "name": "solc",
    "version": "0.5.16+commit.9c3226ce.Emscripten.clang"
  },
  "schemaVersion": "3.3.4",
  "updatedAt": "2021-04-10T20:34:33.154Z",
  "networkType": "ethereum",
  "devdoc": {
    "methods": {
      "getCounter()": {
        "details": "Function to get length of total posts.",
        "return": "The total count of posts."
      },
      "sendHash(string,string,string)": {
        "details": "Function to store image & text hashes.",
        "params": {
          "_img": "hash from IPFS.",
          "_text": "hash from IPFS."
        }
      }
    }
  },
  "userdoc": {
    "methods": {}
  }
}